:020000040800F2
:100000008813002001010008EF2D0008B125000829
:10001000ED2D0008CD070008A933000800000000FE
:10002000000000000000000000000000493100084E
:10003000CF07000800000000ED2F00084B3100083A
:100040001B0100081B0100081B0100081B01000820
:100050001B0100081B0100081B0100081B01000810
:100060001B0100081B0100081B0100081B01000800
:100070001B0100081B0100081B0100081B010008F0
:100080001B0100081B0100081B0100081B010008E0
:100090001B0100081B0100081B0100081B010008D0
:1000A0001B0100081B0100081B0100081B010008C0
:1000B0001B0100081B0100081B0100081B010008B0
:1000C0001B0100081B0100081B0100081B010008A0
:1000D0001B0100089D3300081B0100081B010008DC
:1000E0001B0100081B0100081B010008DFF80CD0F1
:1000F00000F0D0FA00480047013E000888130020B5
:100100000648804706480047FEE7FEE7FEE7FEE7B1
:10011000FEE7FEE7FEE7FEE7FEE7FEE7C731000881
:10012000ED000008202A04DB203A21FA02F0002129
:10013000704721FA02F3D040C2F1200291400843F7
:1001400019467047D2B201E000F8012B491EFBD2DC
:1001500070470022F6E710B513460A4604461946D2
:10016000FFF7F0FF204610BD2DE9FE4F804681EAE3
:100170000300C00F0C46009021F0004123F0004521
:10018000B8EB0200A94105D24046214690461C46E4
:100190000B46024623F00040104347D0270DC7F31B
:1001A0000A00C3F30A510290401A019040286BDA0A
:1001B000C3F3130040F4801B0098924620B1002343
:1001C000D2EB030A63EB0B0B01985946C0F14002D6
:1001D000504600F046F906460D4650465946019AEB
:1001E00000F04EF910EB08006141002487EA11523B
:1001F00084EAE7731A4340D0009A62B3019A012A55
:100200004FEA075215DC001B61EB02014FF0004280
:1002100002EA0752CDE90042001C41F58011324646
:100220002B4600F04EF903B0BDE8F08F4046214662
:10023000F9E7001B61EB0201001C41F58013001877
:100240005B412018A2F5001747EB030140EAD57087
:10025000B6196D4111E06D084FEA360645EAC075E2
:100260004FEA0752001B61EB0201001C41F58011AF
:1002700049084FEA30000019514132462B4603B07D
:10028000BDE8F04F00F00EB90098012240000023B5
:10029000D0EB020263EBE073009821464FEAE07472
:1002A000B8EB000061EB0401E9E783F000435BE792
:1002B00081F0004158E72DE9F04D81EA030404F094
:1002C000004B21F0004514464FF0000A23F0004196
:1002D00050EA050220D054EA01021DD0C5F30A57A6
:1002E0000246C5F31303C1F31300C1F30A5640F4E9
:1002F000801543F48013A7EB0608101BD64608F2BE
:10030000FD3873EB050002D308F1010801E09218F3
:100310005B41B8F1000F03DA00200146BDE8F08D23
:1003200000204FF48011064684460EE0171B73EB45
:10033000050705D3121B63EB050306434CEA010CCA
:1003400049084FEA300092185B4150EA0107EDD1AD
:1003500052EA030012D082EA040083EA050108434E
:1003600005D0101BAB4106D20122002306E000227B
:100370004FF0004302E06FF0010253101AEB060049
:100380004CEB085110EB0A0041EB0B01BDE8F04DBE
:1003900000F088B870B521F0004303430CD0C1F3DE
:1003A0000A550024D5EB040564EB0403D617AD1AF7
:1003B000B34102DB0020014670BD201841EB025121
:1003C00070BD70B5C1F30A5201F000450024C1F3BD
:1003D000130140F2FF3341F480119A4201DA002008
:1003E00070BD40F233439A42A2F2334203DC5242E0
:1003F000FFF798FE00E090402C43F1D0404270BDE2
:100400002DE9F05F0546002092469B468846064649
:10041000814640241BE02846414647462246FFF7D6
:1004200081FE53465A46C01A914110D311461846D0
:10043000224600F016F82D1A67EB01084F462246B7
:100440000120002100F00DF817EB00094E41201E9D
:10045000A4F10104DFDC484631462A464346BDE8A4
:10046000F09F202A04DB203A00FA02F100207047B6
:100470009140C2F1200320FA03F3194390407047E2
:10048000202A06DBCB17203A41FA02F043EAE07358
:1004900006E041FA02F3D040C2F120029140084345
:1004A0001946704710B5141E73F1000408DA401C99
:1004B00041F1000192185B411A4301D120F0010083
:1004C00010BD2DE9F04D92469B4611B1B1FA81F273
:1004D00002E0B0FA80F220329046FFF7C2FF0446F5
:1004E0000F4640EA0A0041EA0B0153465A460843C8
:1004F00013D0114653EA010019D0C8F1400250460A
:10050000FFF710FE05460E46504659464246FFF795
:10051000A8FF084305D0012004E020463946BDE885
:10052000F08D0020054346EAE0762C4337430A98D5
:100530006305E40AA0EB08000022FD0A44EA4754E0
:100540000A3002D500200146E9E70105101969418A
:10055000DDE9084500196941BDE8F04DA2E72DE944
:10056000FE4F81EA030404F0004421F000410094AE
:100570004FF0000B23F0004350EA01045ED052EA32
:1005800003045BD0C3F30A54C1F30A552C44A4F20C
:10059000F3340194A0FB0254C1F3130141F4801120
:1005A000C3F3130343F4801301FB024400FB034E27
:1005B000840A970A44EA815447EA8357A4FB0768F0
:1005C00002958D0A05FB07854FEA932C04FB0C541A
:1005D0002705029D4FEA065847EA1637B5EB08058E
:1005E0006EEB070C870E920E47EA811742EA8312E0
:1005F000A7FB0201B6EB0B0164EB00042B0D43EAF1
:100600000C335E1844EB1C50DA465146E7FB0201FE
:10061000C5F313044FEA0B3343EA14534FEA043291
:10062000019C43EA0603A4F10C040294009CCDE96A
:1006300000B4FFF746FF03B0BDE8F08F002001468D
:10064000F9E70EB5C10F80EAE0700844CA0700213F
:1006500040F233438DE80E000A460B46FFF731FFA8
:1006600003B000BD30B5041E71F1000404DB4FF08F
:100670000044404264EB0101141E73F1000405DBE9
:100680001C464FF00043524263EB04038B4208BF09
:10069000824230BD064C074D06E0E06840F00103A1
:1006A00094E8070098471034AC42F6D3FFF722FDD8
:1006B000A84F0008C84F000870B58C1810F8015BEF
:1006C00015F0070301D110F8013B2A1106D110F8EB
:1006D000012B03E010F8016B01F8016B5B1EF9D1EF
:1006E0002B0705D40023521E0DD401F8013BFAE775
:1006F00010F8013BCB1A921C03E013F8015B01F8E0
:10070000015B521EF9D5A142D8D3002070BD000074
:1007100070B5044600688168C943C9071CD1816867
:1007200021F00101816000F017FD05460FE000BFD8
:1007300000F012FD401B022809D9A06A40F0100009
:10074000A062E06A40F00100E062012070BD206814
:100750008068C043C007EBD0002070BDF8B500260C
:100760000446009600688168C943C90728D081689B
:1007700041F001018160134813490068B0FBF1F0BA
:1007800000E0401E00900028FBD100F0E5FC05468B
:1007900011E000BF00F0E0FC401B02280BD9A06A6A
:1007A00040F01000A062E06A40F00100E06284F8CE
:1007B00024600120F8BD20688068C043C007E9D1EB
:1007C0000020F8BD4C0C002040420F00FEE77047AF
:1007D00070B5044694B000204FF0804103F062F9F8
:1007E00006460D460020104903F05CF932462B46C0
:1007F000FFF761FDFFF7E5FD8440A4B2FF22402131
:1008000003A8FFF79FFC4FF47A72402103A88DE8FC
:10081000070002232246A021044800F08FFE052095
:1008200000F092FB14B070BD00005040480E002054
:100830002DE9FF4F8846044683B01E4600204FF046
:10084000804103F02FF907460D4600201D4903F0B3
:1008500029F93A462B46FFF72EFDFFF7B2FD8246F7
:1008600006EB080004EB9010001B401C00231FFA4D
:1008700080F91F4620E000BF04FA0AF040EA0800B1
:100880001FFA80FB4146304603F098F8054605986C
:100890004FF47A7118440090CDE9015102235A4671
:1008A000A021094800F022FD641C701BA4B24FF087
:1008B000000886B22B467F1C4F45DDDB07B0BDE844
:1008C000F08F000000005040480E00202DE9FF4F3F
:1008D0008946044685B0984600204FF0804103F0D9
:1008E000E1F806460D4600201F4903F0DBF83246CA
:1008F0002B46FFF7E0FCFFF764FD834608EB090099
:1009000004EB9010001B401C00251FFA80FA2E46B5
:1009100025E000BF04FA0BF040EA090080B2039022
:100920004946404603F04AF8074607984FF47A7163
:100930002844CDE9000702910223A0210B48039A25
:1009400000F0FCFDA8EB0700641C1FFA80F8A4B2BD
:100950004FF000093D46052000F0F6FA761C56459A
:10096000D8DB09B0BDE8F08F00005040480E0020F1
:1009700030B58DB00D4604460BE0A0B214236A4694
:100980000021FFF755FF6A46214604A002F028FD2A
:10099000641CAC42F1DB0DB030BD000070616765D6
:1009A00025642025730A000070B50D46044603E057
:1009B000A0B2FFF70DFF641CAC42F9DB70BD72B64C
:1009C000FEE7000010B586B004464FF47A720721A6
:1009D00003A88DE8070001230022D021194800F068
:1009E00085FC9DF80C0002F0E1FF8DF800009DF8F9
:1009F0000D0002F0DBFF8DF801009DF80E0002F003
:100A0000D5FF8DF802009DF80F0002F0CFFF8DF8A2
:100A100003009DF8100002F0C9FF8DF804009DF856
:100A2000110002F0C3FF8DF805009DF8120002F0DE
:100A3000BDFF00992160BDF80410A180A07106B02F
:100A400010BD00009C0E0020F8B50024009490F822
:100A500024202546012A12D0012280F824204A6849
:100A60001F23072A0DD20668776B521E02EB820203
:100A700093409F430B6893401F43776319E0022024
:100A8000F8BD06680D2A0AD2376BD21F02EB82022C
:100A900093409F430B6893401F43376309E0F76A15
:100AA0000D3A02EB820293409F430B6893401F4331
:100AB000F7620A68072306680A2A0AD3F7680A3A1F
:100AC00002EB420293409F438B6893401F43F760C1
:100AD00008E0376902EB420293409F438B689340E2
:100AE0001F4337610A68102A01D0112A20D1124B06
:100AF00002689A4217D193681B0219D4936843F491
:100B0000000393600968102912D10C490C4A096846
:100B1000B1FBF2F101EB8101490000E0491E0091B7
:100B20000029FBD104E0816A41F0200181620124A7
:100B300080F824502046F8BD002401404C0C0020D1
:100B400040420F000068C06C704700002DE9F04182
:100B50004FF0000704003D467ED0A06A002628B969
:100B6000E66284F82460204600F07EF82046FFF715
:100B7000CFFDA16AC90600D420B1A06A40F01000E0
:100B8000A06269E0A16A21F4885141F00201A162EA
:100B90006268E169237B0A4347EA43010A43A1688B
:100BA0004FF48077B94209D0012907D05FF00001E6
:100BB00094F814C0BCF1010F02D00AE03946F7E7FF
:100BC000F3B1A36A43F02003A362E36A43F0010395
:100BD000E3622368D3F804C02CF4694C4CEA010C9E
:100BE000C3F804C021688B68DFF870C003EA0C0307
:100BF00013438B60A168B9420BD0012909D00CE0E6
:100C0000DFF85CC0A3690CEB43330B4343F4006192
:100C1000DFE7218A0D05A5F580152168CB6A23F44D
:100C200070032B43CB62216889680E4B19409142B7
:100C300008D1E662A16A21F0020141F00101A1623E
:100C4000BDE8F081A06A20F0020040F01000A06230
:100C5000E06A40F00100E0620120F1E7FDF7E1FF0A
:100C600000E0FFFFFE0E1FFF00B585B000210091E0
:100C700001910291039100680E49884218D10E48F3
:100C8000816941F400718161816901F4007104910D
:100C9000816941F0040181618069694600F00400C6
:100CA00004900820009003200190044800F05EF9B1
:100CB00005B000BD002401400010024000080140C2
:100CC0002DE9F84300260D460446009600F044FA4C
:100CD000804620688168C90508D5A06A40F02000D8
:100CE000A06284F824600120BDE8F8834168C9054A
:100CF00003D4C06A10F4700F26D0022000F094FDD7
:100D000038490968B1FBF0F72068036936490B429E
:100D10004FEA61014FEAA1121BD1C3684FEA611C7F
:100D200013EA0C0F15D103690B4221D1C0681042A0
:100D30001ED114201FE0681C06D045B300F00CFA49
:100D4000A0EB0800A84222D8206800688007F2D5EE
:100D50002AE003690B4202D1C168114206D0026940
:100D600022490A4206D1C068084203D1542002E059
:100D7000292000E0FC204743009813E0681C0ED0B7
:100D80002DB100F0E9F9A0EB0800A84207D9A06A4C
:100D900040F00400A06284F824600320A4E70098D7
:100DA000401C0090B842E9D321686FF0120008603F
:100DB000A06A40F40070A06220688068C0F34240DE
:100DC00007280CD1207B50B9A06A20F48070A06263
:100DD000A06AC00403D4A06A40F00100A062002011
:100DE00082E700004C0C0020244992244992240000
:100DF00070B5044690F8240001280DD0012084F835
:100E000024002046FFF7AAFC02004FF0000005D0A6
:100E100084F82400104670BD022070BDA16A40F223
:100E20000123994341F48071A1621F4D23681F493A
:100E3000AB4218D10E6816F4702F14D0A66A46F48F
:100E40008016A6620E68760505D5A66A26F40056B9
:100E500046F48056A662A66AF6040AD5E66A26F02B
:100E60000606E66206E0A66A26F48016A6625E68BA
:100E7000E9E7E06284F824006FF00200186020685F
:100E80008368C3F34243072B05D1A84208D1096800
:100E900011F4702F04D0816841F480118160B9E7AA
:100EA000816841F4A001F9E70028014004240140D1
:100EB00010B590F821100024022903D00421816389
:100EC00001243DE001680A6822F00E020A60016810
:100ED0000A6822F001020A601A4A0168914201D1AF
:100EE000012121E0174A1432914201D110211BE067
:100EF000144A2832914201D1891515E0114A3C3239
:100F0000914201D189140FE00E4A5032914202D130
:100F10004FF4803108E00B4A6432914202D14FF421
:100F2000801101E04FF08071064A083A51600121BA
:100F300080F82110002180F82010416B01B1884712
:100F4000204610BD0800024070B5044600F004F9C8
:100F50000546601C02D004480078044400F0FCF808
:100F6000401BA042FAD370BD400C00202DE9F84F81
:100F7000DFF8B891002409F1040A0AF1040B2346B2
:100F80000F270BF1040EC9E00125A5402A40AA4213
:100F90007DD1674ED1F804C0ACEB0608B44532D021
:100FA00014DCBCF1030F3AD009DCBCF1000F2AD0ED
:100FB000BCF1010F1CD0BCF1020F31D11DE0BCF11E
:100FC000110F17D0BCF1120F2AD119E0B8F5881F04
:100FD00019D006DCB8F5803F15D0B8F5801F1FD1B9
:100FE00011E0B8F5001F0ED0B8F5041F18D10AE0C3
:100FF000CB6815E0CB681B1D12E0CB6808330FE00F
:10100000CB680C330CE08B682BB1012B4FF008033D
:1010100003D0456104E0042302E0056100E0002301
:10102000FF2A01D8064601E000F104064FEA8405D4
:1010300001D9A5F12005D6F8008007FA05FC28EAB9
:101040000C0803FA05F548EA0508C6F800804D6863
:10105000ED0062D5374DAE6946F00106AE61AD696F
:1010600024F0030605F001050095334D06EB050C51
:10107000DCF80850A607360F07FA06F825EA080537
:10108000DFF8B880404503D14FF0000817E044E096
:10109000DFF8AC80404502D14FF001080FE0DFF8E7
:1010A000A480404502D14FF0020808E0DFF89880A4
:1010B000404502D14FF0030801E04FF0040808FA60
:1010C00006F848EA0508CCF808804D68D9F80060B1
:1010D000ED034D4601D5164300E096432E604D6862
:1010E000DAF80060AD03554601D5164300E096439B
:1010F0002E604D68DBF80060ED025D4601D51643B9
:1011000000E096432E604D68DEF80060AD02754643
:1011100001D5164300E096432E60641C0D682A46F4
:10112000E5407FF431AFBDE8F88F000000040140D6
:1011300000001110001002400000014000080140B2
:10114000000C014000100140001401400AB101618F
:1011500070470904FBE70000014880687047000001
:10116000400C002070B5040025D094F83D00002507
:1011700020B984F83C50204600F078FA242084F806
:101180003D002068016821F00101016020680168CC
:1011900041F4004101602068016821F400410160D0
:1011A00000F0B2FC4D4A6168914201D84C4900E020
:1011B0004C49884201D2012070BD4B492368B0FBE5
:1011C000F1F15E6826F03F060E435E60636893426D
:1011D00006D94FF4967359434FF47A73B1FBF3F188
:1011E0002368491C1E6A26F03F0631431962616874
:1011F000914210D84900401EB0FBF1F2521CC2F3DC
:101200000B02042A01D2042022E0B0FBF1F0401CC2
:10121000C0F30B001CE0A268F2B301EBC10303EBC7
:101220000116431EB3FBF6F35B1C43F480431B051E
:1012300049D092B301EBC10202EB0111401EB0FB99
:10124000F1F0401CC0F30B0040F4804040F400403B
:101250002168CA694CF6FF739A431043C861D4E908
:10126000071001432068026822F0C00211430160A8
:10127000D4E9030101432068826848F2FF339A43AE
:1012800011438160D4E9050108432168CA6822F04E
:10129000FF021043C86001E00EE016E0206801681C
:1012A00041F0010101602564202084F83D002563A0
:1012B00084F83E50002070BD01EB4106431EB3FB95
:1012C000F6F35B1CB3E70120C2E701EB4101401ECE
:1012D000B0FBF1F0401CC0F30B00B7E7A0860100A3
:1012E00080841E0000093D0040420F002DE9FF4FA1
:1012F00083B00025DDE910799A4693460446DDF86F
:1013000048800095FFF728FF064694F83D00202806
:101310007CD11923012285492046009601F058FA14
:101320000028F5D194F83C0001286FD0012084F802
:101330003C0020680168C90703D1016841F0010140
:1013400001602068016821F400610160222084F8B6
:101350003D00402084F83E0025646762A4F82A908E
:10136000608D20857248E062CDE9008653465A467A
:101370002046049901F034F900287DD1208DDFF852
:10138000B491202768B1012814D002282068016890
:101390001ED041F48061016020684169806900903D
:1013A000B6E02068416981690091016841F40071EB
:1013B0000160ADE02068016821F48061016072B6CF
:1013C0002068416981690091016841F400710AE077
:1013D00041F40061016072B6206841698169009141
:1013E000016821F48061016062B691E0032868D849
:1013F00001280CD0022843464FF0000249462046FF
:1014000000960FD001F0E4F9B0BB10E08BE032465B
:101410004146204601F05BFA70BB20680069616AB2
:1014200008706CE001F0D4F930BB72B634E020688B
:10143000016821F48061016072B620680069616A08
:101440000870606A401C6062208D401E2085608D9F
:10145000401E6085384846F2A8110068B0FBF1F0E4
:10146000C0EBC00000EB80000090401E009008D050
:1014700020684069C04300E029E040070CD500988F
:10148000F3E744F8305F6773A573206940F02000EC
:10149000206162B625731AE02068016841F400718A
:1014A000016020680069616A0870606A401C6062BF
:1014B000218D491E2185618D491E618562B6216895
:1014C0001BE032464146204601F001FA18B10120E6
:1014D00007B0BDE8F08F20680069616A0870606A33
:1014E000401C6062218D491E2185618D491E6185E8
:1014F00021684A69D24352070AD409690170606AB7
:10150000401C6062208D401E2085608D401E6085DD
:10151000208D00287FF46AAF84F83D7084F83E5037
:1015200084F83C50D4E70220D2E70000020010000B
:101530000000FFFF040001004C0C00202DE9FF4FCC
:1015400083B09A46DDE9119793460446DDF8408062
:10155000FFF702FE054694F83D0020287FD11923AD
:10156000012240492046009501F032F9002876D149
:1015700094F83C00012872D0012084F83C002068D7
:101580000168C90703D1016841F0010101602068C9
:10159000016821F400610160212084F83D004020B1
:1015A00084F83E0000262664C4F82480A4F82A901B
:1015B000608D20852C48E062CDE9007553465A467F
:1015C0002046049901F08AF870B930E02A4639467D
:1015D000204601F0AFF958B1206C042804D12068EE
:1015E000016841F400710160012007B0BDE8F08F8F
:1015F000606A216800780861606A401C6062218D21
:10160000491E89B22185628D521E62852268536906
:10161000DB435B070BD469B100781061606A401C42
:101620006062208D401E2085608D401E6085208D6B
:101630000028CBD12A463946204601F0A3F80028DD
:10164000CAD154F83D0B016841F4007101602020BB
:1016500004F81E09E67766770020C6E7FFE7022058
:10166000C3E70000020010000000FFFF30B585B0A6
:10167000002100910191029103911B4D04681B49C7
:10168000122203231A48AC4211D18C6944F0080499
:101690008C618C6904F008040494CC6944F400144F
:1016A000CC61C96901F400110491C02114E0114D0D
:1016B000AC4217D18C6944F008048C618C6904F049
:1016C00008040494CC6944F48004CC61C96901F431
:1016D000800104914FF44061CDE900120393694603
:1016E000FFF744FC05B030BD00540040001002403C
:1016F000000C014000580040024881680278114403
:1017000081607047400C0020074810B5016841F027
:1017100010010160032000F075F8002000F006F8C9
:1017200000F024F8002010BD0020024070B50D4DDF
:1017300004464FF47A712878B1FBF0F00A49096841
:10174000B1FBF0F000F049FD48B9102C07D200229F
:101750002146501E00F036F800206C6070BD01205C
:1017600070BD0000400C00204C0C00200C4808B557
:10177000816941F001018161816901F001010091FC
:10178000C16941F08051C161C06900F08050009092
:101790000448416821F0E06141F00071416008BDFA
:1017A0000010024000000140002809DB00F01F0289
:1017B000012191404009800000F1E020C0F80011B3
:1017C00070470000F0B40E4B1B680C46C3F30223B5
:1017D000C3F10705042D00D90425191D072901D2DD
:1017E000002300E0DB1E012606FA05F1491E214018
:1017F00099409E40761E16403143F0BC01F014BE65
:101800000CED00E0064900F0070208684FF6FF0300
:10181000184040EA0220034A104308607047000065
:101820000CED00E00000FA0510B529A401461DCC1E
:1018300086B08DE81D002AA02A4C00680490002084
:10184000012923D002293AD010291DD161682268CC
:10185000D20119D5C1F38342C9031DF8020009D58D
:10186000616804AAC1F34041515C1F4AB2FBF1F127
:10187000484301E01D4948436168490204D44000DF
:101880005FF00301B0FBF1F006B010BD226AC2F3B5
:101890000121012903D1920701D5C803F4E70229E8
:1018A00005D1626A920702D549F64040ECE7032968
:1018B000EAD121688903E7D54FF22440E4E700F03C
:1018C00033F96168C1F38131491C4900DAE700004E
:1018D00002030405060708090A0B0C0D0E0F101071
:1018E000010200000010024000127A0000093D00D1
:1018F0002DE9F84305460078354CC00754D0E0691F
:101900000026C00008D4E06940F08050E061E06942
:10191000012600F0805000902E480168C90512D4BD
:101920000168804641F480710160FFF715FC0746AD
:1019300005E000BFFFF710FCC01B642823D8D8F8CF
:101940000000C005F6D5206A10F4407021D0A988A7
:1019500001F4407181421CD0206A1F49012220F409
:1019600040700A6000220A602062C00711D0FFF7B1
:10197000F3FB074641F2883808E000BFFFF7ECFBB5
:10198000C11B414502D90320BDE8F883206A8007C6
:10199000F4D5206A696820F44070084320621EB1C3
:1019A000E06920F08050E0612878800705D5606804
:1019B000A96820F44040084360602878C00605D537
:1019C0006068E96820F48000084360600020DBE77D
:1019D0000010024000700040400442422DE9F047F0
:1019E0000F46050061D0434E306800F00700B84252
:1019F00009D2306820F0070038433060306800F0CA
:101A00000700B84251D128683B4C810712D54007E6
:101A100003D5606840F4E06060602878000703D573
:101A2000606840F4605060606068A96820F0F00071
:101A3000084360602878C00728D06868012810D063
:101A40002168022810D0890700292EDA616821F068
:101A5000030101436160FFF77FFB804641F2883953
:101A60000DE021688903EFE78901EDE7FFF774FBDB
:101A7000A0EB0801494502D90320BDE8F087606862
:101A8000696800F00C00B0EB810FEFD1306800F016
:101A90000700B8420BD9306820F0070038433060A7
:101AA000306800F00700B84201D00120E5E728784F
:101AB000400705D56068E96820F4E060084360608D
:101AC0002878000706D56068296920F4605040EA4C
:101AD000C100606000F038F86168084AC1F3031182
:101AE000515CC8400649086006480068FFF71EFEC2
:101AF0000020C2E70020024000100240084F00080A
:101B00004C0C0020440C002004480549006849683A
:101B1000044AC1F30221515CC84070474C0C0020BC
:101B200000100240184F0008044805490068496841
:101B3000044AC1F3C221515CC84070474C0C0020DC
:101B400000100240184F000812A185B00FC98DE89F
:101B50000F0014A0144A006804905168134801F063
:101B60000C03042B10D0082B0ED1C1F38343C903FF
:101B70001DF803000AD5516804AAC1F34041515C25
:101B80000A4A5043B0FBF1F005B07047084948439A
:101B9000FAE7000002030405060708090A0B0C0D0A
:101BA0000E0F1010010200000010024000127A0017
:101BB00000093D002DE9F84F040070D02078C04D99
:101BC000C00749D06868C0F38100012807D0686861
:101BD000C0F38100022809D16868C00306D52868CF
:101BE000800339D560680028E7D035E06068B0F53B
:101BF000803F0BD010B1B0F5A02F11D0286820F491
:101C000080302860286820F4802002E0286840F4B2
:101C100080302860606890B1FFF79EFA06460AE0BF
:101C2000286840F480202860F0E700BFFFF794FAAE
:101C3000801B642873D828688003F7D50CE0FFF771
:101C40008BFA064605E000BFFFF786FA801B642882
:101C5000F0D828688003F7D420789A4E80074FF098
:101C600001094FF0000839D5686810F00C0F07D053
:101C70006868C0F38100022809D16868C00306D4EF
:101C80002868800714D52069012808D110E0206950
:101C9000B0B1C6F80090FFF75FFA074605E00AE129
:101CA000FFF75AFAC01B0228C4D828688007F7D566
:101CB0002868616920F0F80040EAC10028600DE062
:101CC000C6F80080FFF748FA074604E0FFF744FA39
:101CD000C01B022823D828688007F7D42078000783
:101CE0002CD57948A169D9B1C0F80090FFF734FA32
:101CF000074604E0FFF730FAC01B02280FD8686AD5
:101D00008007F7D571484FF4FA510068B0FBF1F045
:101D1000009000BF0098411E0091FAD20EE080E0D2
:101D2000C0F80080FFF718FA074604E0FFF714FA3E
:101D3000C01B022875D8686A8007F7D4207840074E
:101D400060D5E8690027C00008D4E86940F08050F9
:101D5000E861E869012700F0805000905C48016864
:101D6000C90513D40168834641F480710160FFF70F
:101D7000F3F9824606E000BFFFF7EEF9A0EB0A0098
:101D800064284ED8DBF80000C005F5D5E0680128CE
:101D90000AD008B1052813D0286A20F00100286273
:101DA000286A20F0040002E0286A40F0010028625E
:101DB000E06841F2883B98B1FFF7CEF982460BE02C
:101DC000286A40F004002862EEE700BFFFF7C4F97C
:101DD000A0EB0A0159455AD8286A8007F6D50CE0CD
:101DE000FFF7BAF9824605E0FFF7B6F9A0EB0A0162
:101DF00059454CD8286A8007F6D41FB1E86920F00D
:101E00008050E861E06988B36968C1F38101022903
:101E100044D00228C6F8608004D0FFF79DF904463C
:101E200038E034E0FFF798F9074604E0FFF794F94B
:101E3000C01B02282BD828688001F7D4206AB0F58F
:101E4000803F05D16868A16820F4003008436860CD
:101E5000D4E908010843696821F4741108436860F3
:101E6000C6F86090FFF778F9044606E025E000BF69
:101E7000FFF772F9001B022809D828688001F7D5FE
:101E80001BE000BFFFF768F9001B022802D90320FE
:101E9000BDE8F88F28688001F4D40EE00128F7D05F
:101EA0006868226A00F48031914204D1616A00F4CA
:101EB0007010884201D00120EAE70020E8E7000026
:101EC0000010024000004242800442424C0C0020BC
:101ED0000070004070B5040009D0606A002540B170
:101EE00025616561A56294F8510040B10CE00120C4
:101EF00070BD6068B0F5827FF4D0E561F2E784F8E8
:101F00005050204600F040F8022084F8510020682C
:101F1000016821F040010160A088218900F48270ED
:101F200001F404410843A18901F400610843217CC4
:101F300001F002010843217D01F001010843218BDA
:101F400001F400710843217F01F03801084394F83F
:101F5000201001F080010843218D01F40051084355
:101F600021680860A069042101EA104021684860E6
:101F70002068C16921F40061C1616565012084F8B0
:101F80005100002070BD000030B585B000240094E1
:101F900001940294039400681449884223D11448A0
:101FA000816941F480518161816901F4805104911A
:101FB000816941F00401816180690E4D00F00400E7
:101FC0000490A02000900220019003200390694615
:101FD0002846FEF7CBFF4020CDE90004694628469D
:101FE0000294FEF7C3FF05B030BD00000030014091
:101FF00000100240000801402DE9F84F044690F817
:10200000500000270A9E1D4692468B464FF001095C
:1020100001280ED0012084F85000FFF79DF880467B
:1020200094F85100616801280CD0B1F5827F07D186
:1020300002E00220BDE8F88FA16809B9042801D0A8
:102040000227C2E0BBF1000F27D0BAF1000F24D065
:102050001DB394F85100042802D0052084F85100E3
:1020600000206065C4F838A0E587A587C4F830B0C3
:10207000E586A5862064606420680168490603D46B
:10208000016841F040010160E068B0F5006F6068F0
:1020900005D0E8B3012D46D07FE0012795E008B1D7
:1020A000012D39D1206B21680088C860206B801C0D
:1020B0002063E08E401EE0862EE02068816889075C
:1020C0000FD5E18E69B1B9F1010F0AD1216B0988F1
:1020D000C160206B801C2063E08E401EE0864FF0C4
:1020E000000920688168C9070CD0E18F51B1C06830
:1020F000A16B0880A06B801CA063E08F401EE0876E
:102100004FF00109FFF728F8A0EB0800B04200E00B
:1021100009E001D3701C50D1E08E0028CDD1E08FB2
:102120000028CAD13FE0206B216800780873206B3B
:10213000401C2063E08E401EE0862EE0206881680F
:1021400089070FD5E18E69B1B9F1010F0AD1216B71
:1021500009780173206B401C2063E08E401EE086EE
:102160004FF0000920688168C9070CD0E18F51B198
:10217000C068A16B0870A06B401CA063E08F401E7C
:10218000E0874FF00109FEF7E7FFA0EB0800B0423F
:1021900002D3701C01D010E07EB1E08E0028CDD1BA
:1021A000E08F0028CAD142463146204600F060FF49
:1021B00028B101272020606507E0032705E0A0681B
:1021C00018B92068C16880680090012084F8510027
:1021D000002084F8500038462CE710B5401EB0F1BE
:1021E000807F01D3012010BD4FF0E02460610F21FA
:1021F000601701F019F90020A0610720206100207C
:1022000010BD704770B5026804461068D168536904
:1022100010F00F0F52D003F0010501F490762E4319
:102220005FD0C20705D0CA0503D5E26B42F00102B8
:10223000E263420705D5DA0703D0E26B42F00202FF
:10224000E263820705D5DA0703D0E26B42F00402AD
:10225000E263020707D501F020022A4303D0E26BB4
:1022600042F00802E263E26B002A33D0800604D514
:10227000880602D5204600F0BDFF20684069E16B6A
:10228000C0F38010090700D428B3204600F0A4FF53
:102290002068416949061AD5416921F04001416130
:1022A000606BA0B12D494163606BFEF701FE002811
:1022B00010D0606B416BBDE870400847830610D5B5
:1022C0008B060ED52046BDE8704000F093BF204637
:1022D000FFF797FF70BD2046FFF793FF0020E063F4
:1022E00070BD03062BD50B0629D594F8390021289B
:1022F000F6D1A068B0F5805F01D12069B0B1206A45
:10230000411C2162216800784860E08C401E000476
:10231000000CE084E4D12068C16821F08001C16034
:102320002068C16841F04001C16070BD206A00882A
:10233000C0F308005060206A801C2062E5E7400678
:10234000F3D54806F1D5D168204621F04001D1608F
:10235000202184F8391000F02AF970BDC931000835
:1023600070B5040004D094F83900002510B106E0DF
:10237000012070BD84F83850204600F023F8242056
:1023800084F839002068C16821F40051C1602046FA
:1023900000F076FF2068016921F490410161206816
:1023A000416921F02A0141612068C16841F400516E
:1023B000C160E563202084F8390084F83A000020E9
:1023C00070BD000030B585B00024009401940294E3
:1023D00003940068184988422CD11848816941F457
:1023E00080418161816901F480410491816941F0FA
:1023F000040181618069124D00F0040004904FF4E3
:102400000070009002200190032003906946284646
:10241000FEF7ACFD2815CDE9000469462846029474
:10242000FEF7A4FD002211462520FFF7CBF9252059
:10243000FFF7BAF905B030BD003801400010024086
:102440000008014090F83A30202B22D1F9B1F2B1C6
:1024500090F83830012B1CD081628285C285002122
:10246000C163222280F83A2080F838100168CA68D7
:1024700042F48072CA6001684A6942F001024A610E
:102480000068C16841F02001C16000207047012050
:10249000704702207047000070B50546006810497B
:1024A00088421BD10F4C10A0E17900F099FFE07930
:1024B000012803D11E210020FEF75AFAE0790228F4
:1024C00004D10120A07109A000F08AFF2846BDE8D0
:1024D000704004490122C91DFFF7B4BF70BD000060
:1024E000003801400000002025780A006565707200
:1024F0006F6D20657265617365210A002DE9F843EF
:10250000044690F839001F4616460D4620284CD147
:10251000C5B1BEB194F83800012846D0012084F836
:1025200038004FF00008C4F83C80212084F83900BE
:10253000FEF712FEA6848146E684A068B0F5805FAF
:1025400003D004E00120BDE8F883206928B12E46BD
:102550005FF0000584F838800EE00026FAE780215D
:10256000204600F0E9FEA0B9AEB116F8010B2168D3
:102570004860E08C401EE084E08C4B464FF0000247
:1025800000970028EBD14FF04001204600F0D4FE28
:1025900030B10320D7E735F8020BC0F30800E6E7B7
:1025A000202084F839000020CDE70220CBE77047D7
:1025B000FEE701684A69D24352050FD46FF4806286
:1025C0004A61002140F8301F202242738173026962
:1025D00042F004020261017301207047002070473D
:1025E0002DE9F84F0446006889460B9D016898461E
:1025F000174641F4806101602068016841F48071F0
:10260000016000954FF0011B0022594620460A9BAD
:1026100000F0DEF84FF4007A40B120680068C00591
:1026200001D5C4F840A00320BDE8F88F216809F067
:10263000FE0008612B46284920460A9A00F0FCF863
:10264000F0BB20684169806900902A4620460A99BB
:1026500000F070F940B1206C04283AD1206801687C
:1026600041F40071016034E0FEB2B8F1010F09D00D
:102670002168380A08612A4620460A9900F05AF96A
:102680000028E8D1206806612A4620460A9900F011
:1026900051F90028DFD12068016841F480710160A0
:1026A00000950022594620460A9B00F091F8002828
:1026B000B3D1216809F0FF0040F00100086100E09B
:1026C00007E02B46044920460A9A00F0B5F8002896
:1026D000AAD00120A8E70000020001002DE9F8437C
:1026E000044600680D46DDE90897016898461646DD
:1026F00041F4807101604B4600224FF001112046E9
:10270000009700F065F848B120680068C00502D560
:102710004FF4007020640320BDE8F883216805F0C1
:10272000FE0008613B464A461549204600F084F801
:1027300088B920684169806900903A464946204638
:1027400000F0F8F848B1206C042804D12068016832
:1027500041F4007101600120DEE7F5B2B8F1010F2C
:1027600009D02168300A08613A464946204600F0FF
:10277000E1F80028E7D1206805610020CCE70000DF
:102780000200010070B516460D4604460DE02046D5
:10279000FFF70FFF08B1012070BD681C05D0FEF7E0
:1027A000DBFC801BA84207D835B120684069C043D4
:1027B0004007ECD4002070BD002044F8300F2021E9
:1027C0006173A073216941F0200121612073E2E768
:1027D0002DE9F0471E4690460D460446C1F30747D3
:1027E000DDF8209008E0701C06D0FEF7B5FCA0EBE9
:1027F0000900B0420FD876B12068012F18D0806947
:1028000025EA00000004000C14D000214145EAD064
:102810000020BDE8F087002044F8300F20216173CC
:10282000A073216941F02001216120730120F0E7AC
:102830004069E5E70121E9E72DE9F0479A4691462D
:102840000E46044600254FF02008C1F3074725E057
:1028500020684069C043400514D42068016841F4F1
:102860000071016021686FF480604861256384F81D
:102870003D8084F83E50206C40F00400206484F8D1
:102880003C501FE0B9F1FF3F08D0FEF765FCA0EB1C
:102890000A0149450CD8B9F1000F09D02068012F71
:1028A00013D0806926EA00000004000C0BD0CFE7AB
:1028B00044F8305F84F80D80A573206940F0200053
:1028C000206125730120BDE8F0874069EAE72DE922
:1028D000F041002590460E460446202717E0406947
:1028E000C043C0060CD454F8301B6FF01000486190
:1028F00044F810596777A577206A2062257717E09A
:10290000FEF72AFCA0EB0800B04208D83EB12068D0
:102910004169C9434906E2D40020BDE8F08144F88A
:10292000305F6773A573206940F020002061257334
:102930000120F2E770B516460D4604460DE020462C
:10294000FFF737FE08B1012070BD681C05D0FEF707
:1029500003FC801BA84207D835B120684069C043FA
:102960000006ECD4002070BD002044F8300F202178
:102970006173A073216941F0200121612073E2E7B6
:1029800010B5142000F059F8800705D10321BDE8E7
:102990001040142000F073B810BD7CB5044600252B
:1029A00029460D2000F001F993202070202060704E
:1029B00001A823460090022219460C2000F06BF873
:1029C000010009D1225C401C5540C0B20428F9D353
:1029D000205CA84200D0022108467CBD70B50C46A0
:1029E000054600F02AF820EA04012846BDE87040B8
:1029F00000F0DBB810B500F03EF88D212A2000F081
:102A0000D4F83E212B2000F0D0F81E212D2000F01C
:102A1000CCF800212C2000F0C8F87021262000F00E
:102A2000C4F84021152000F0C0F83D21112000F02D
:102A3000BCF8BDE81040FFF7A3BF7E2101EA4000CB
:102A400040F0800000F0E4BA7CB50C460546072152
:102A50000D2000F0AAF8257001A82346009001225D
:102A600019460C2000F017F818B9BDF80410102909
:102A700000D002207CBD0F21012000F096B870B577
:102A80000C460546FFF7D9FF40EA04012846BDE899
:102A9000704000F08AB82DE9FF5F00270226DDF8BC
:102AA00038A015468B468146B8460C2805D0B9F1AA
:102AB0000E0F05D11227102001E077273020804625
:102AC00047F08001022000F070F880210420FFF719
:102AD00085FF80210A20FFF7D2FF0021012000F0AE
:102AE00064F8002406E01BF80410092000F05DF8EB
:102AF000641CA4B2AC42F6D34946012000F055F85C
:102B0000B9F10C0F03D180210D20FFF7B8FF4FF46E
:102B1000FA650420FFF791FF6D1E2D0404462D0C6D
:102B200004D0E00702D114EA080FF2D080210D2072
:102B3000FFF754FF35B10620FFF77FFF10F01B0FA2
:102B400004D0022604B03046BDE8F09F00263C4089
:102B5000E00700D00126B9F10C0FF3D10A20FFF7EE
:102B60006CFF04460C20FFF768FF10F007004FEAE7
:102B7000C40104D008390844AAF8000001E0AAF80A
:102B8000001024B1102C04D91024002503E00124E6
:102B9000FBE7002506E00920FFF74FFF03994855A2
:102BA0006D1CADB2A542F6D3CCE77E2202EA40000E
:102BB00000F046BA3EB500241148009401940294F6
:102BC0000E498460016004730475012505614FF4AA
:102BD00060214460C161FDF7B9FF08B1FDF7EFFE68
:102BE0000320CDE90005694602940548FDF72CFF56
:102BF000002801D0FDF7E3FE3EBD000000240140A7
:102C0000180E00202DE9F04786B0002432480094C9
:102C1000019402940394816941F0100181618169FA
:102C200001F010010491816941F020018161816905
:102C300001F020010491816941F004018161816901
:102C400001F004010491816941F00801816180690A
:102C5000DFF8888000F008004FF40055049000224F
:102C600029464046FEF772FADFF8749000221021E0
:102C70004846FEF76BFADFF86CA04FF4407700226D
:102C800039465046FEF762FA009502260125039662
:102C9000CDE9015469464046FEF768F904200090EA
:102CA0001148CDE9010469464846FEF75FF9102056
:102CB000CDE90005CDE9024669464846FEF756F9DA
:102CC00000970396CDE9015469465046FEF74EF948
:102CD00006B0BDE8F087000000100240001001407F
:102CE00000080140000C0140000021100D4810B503
:102CF0000B4901600C49416000214FF48042816022
:102D0000C0E9031241618161C1610162FEF72AFAE3
:102D1000002803D0BDE81040FDF751BE10BD0000F3
:102D200000540040480E0020801A06000D4810B5DF
:102D30000B4901600C49416000214FF480428160E1
:102D4000C0E9031241618161C1610162FEF70AFAC3
:102D5000002803D0BDE81040FDF731BE10BD0000D3
:102D6000005800409C0E0020801A0600104810B544
:102D70000E4901604FF48271416000218160C160A1
:102D80004FF400720161C0E905121822C0E9072161
:102D9000416281620A21C162FFF79CF8002803D0DA
:102DA000BDE81040FDF70BBE10BD00000030014033
:102DB000F00E00200C4810B50A4901604FF4E131D3
:102DC0004160002181600C22C160C0E90412816170
:102DD000C161FFF7C5FA002803D0BDE81040FDF738
:102DE000EEBD10BD00380140480F0020FEE7FEE7B1
:102DF00070B5002404F1B000C0B200F0D3F8002098
:102E000000F0D0F8102000F0CDF80025002000F0F0
:102E1000DBF86D1CEDB2802DF8D3641CE4B2082CF5
:102E2000E8D370BD2DE9F047984617468246002644
:102E30000C46DDF8209011E02146504600F01AF8CB
:102E4000554607E019F80600761CB6B200F0BCF84B
:102E50006D1CEDB2BD42F5D3641CE4B24445EBD326
:102E6000BDE8F08710B5C820FEF76EF8BDE8104049
:102E700000F09CBA10B50446B031C8B200F092F828
:102E8000102040EA141000F08DF804F00F00BDE8A7
:102E9000104000F087B800002DE9F04115460E46BD
:102EA0000746FFF7E7FF0E48002400EB8515285D75
:102EB00000F08AF8641CE4B2102CF8D3761CF1B24E
:102EC0003846FFF7D7FF0024281990F8200000F0BB
:102ED0007BF8641CE4B2102CF6D3BDE8F08100004E
:102EE000230000202DE9F041203A00240D468046C1
:102EF000D6B27F2803D900208D1C8046EDB2102B5E
:102F000029460FD0FFF7B6FF164906EB460001EB46
:102F10004005285D00F058F8641CE4B2062CF8D394
:102F2000BDE8F081FFF7A6FF0F4F00BF04EB0610CE
:102F3000385C00F049F8641CE4B2082CF6D36D1C30
:102F4000E9B24046FFF796FF5FF0000404EB06107D
:102F50003844007A00F038F8641CE4B2082CF5D349
:102F6000DEE70000F0460008184900082DE9F041AE
:102F7000984617460E46044600250DE04346314666
:102F80002046FFF7AFFF0834E4B2782C02D90024C2
:102F9000B61CF6B26D1CEDB27A5D002AEED1BDE82A
:102FA000F081000001B584B001214FF4807204A8C3
:102FB0008DE807000B46002278210248FEF7BEFA92
:102FC00005B000BD480E002001B584B001214FF4CA
:102FD000807204A88DE807000B4640227821024841
:102FE000FEF7ACFA05B000BD480E002070470000A7
:102FF0000EB501238DF804000A20009002AA01A951
:103000000248FEF7F9FF9DF808000EBDF00E002003
:1030100070B50A4D0446002210212846FEF796F8A6
:103020002046FFF7E5FF0020FFF7E2FF04460122FC
:1030300010212846FEF78AF8204670BD000801409E
:1030400070B50A4C0E460546002210212046FEF7B8
:103050007DF82846FFF7CCFF3046FFF7C9FF204632
:10306000BDE8704001221021FEF770B80008014051
:1030700038B50B46009204460022802100F008F883
:10308000002804D0606D40F020006065032038BD4A
:103090002DE9F8431E46914688460446089DFEF7F2
:1030A0005BF8401B351AFEF757F8074625480068BD
:1030B000C0F3CB30684338E0701C37D0FEF74CF8D3
:1030C000C01BA84203D215B1009860B32CE0206861
:1030D000416821F0E00141606068B0F5827F0BD16A
:1030E000A068B0F5004F02D0B0F5806F04D1206821
:1030F000016821F040010160A06AB0F5005F09D1CC
:103100002068016821F4005101602068016841F4E1
:1031100000510160012084F85100002084F8500023
:103120000320BDE8F8830025401E009020688168D8
:1031300038EA010004D000214945BDD10020F0E764
:103140000121F9E74C0C00207047FEF7D5BA30B5E5
:1031500093B028216846FCF7FCFF14210AA8FCF76D
:10316000F8FF002501200F95109511950104129587
:103170008DE8230004904FF4E010CDE908100224FC
:1031800007946846FEF716FD08B172B6FEE70AA975
:103190000F2081E831004FF48060CDE90D05022158
:1031A0000AA8FEF71BFC08B172B6FEE74FF4004018
:1031B00011900F940FA8FEF79BFB002801D072B668
:1031C000FEE713B030BD704710B5406A0021C185DD
:1031D000C184FFF716F810BD0168CA6822F4907226
:1031E000CA6001684A6922F001024A61202180F820
:1031F0003A10704710B590F83A10222901D00220F9
:1032000010BD82684FF480539A4201D1016921B107
:10321000816A9A421BD04AB10AE00268816A526808
:10322000C2F308020A80816A891C08E0026972B14F
:103230000268526802F07F020A70816A491C81624A
:10324000C18D491E0904090CC18503D016E002682E
:103250005268F1E70168CA6822F02002CA6001687A
:10326000CA6822F48072CA6001684A6922F00102C9
:103270004A61202180F83A10FFF70EF9002010BDB6
:1032800070B5044600680169E26821F440511143B9
:1032900001612169A0680843616908432168CA681F
:1032A00041F20C639A430243CA6020684169A269F3
:1032B00021F44071114341611E492068884202D1C6
:1032C000FEF732FC01E0FEF71FFC00EBC00101EB52
:1032D0000012606864218000B2FBF0F3B3FBF1F3ED
:1032E0006FF018067343B2FBF0F5B2FBF0F605EB96
:1032F0008305322303EB0515B5FBF1F5B6FBF1F6BB
:1033000005F0F00505EB0615B2FBF0F6B2FBF0F0A8
:10331000B0FBF1F06FF01802504306EB800003EBB6
:103320000010B0FBF1F0216800F00F002844886025
:1033300070BD0000003801402DE9F0419846174665
:103340000E460446069D1DE0681C1BD02DB1FDF7FE
:1033500003FFA0EB0800A84214D92068C16821F43B
:10336000D071C1602068416921F0010141612020D4
:1033700084F8390084F83A00002084F838000320EB
:10338000BDE8F0812068006836EA000004D0002023
:10339000B842D9D00020F3E70120F9E70148FEF751
:1033A00031BF0000480F0020FEE70000FEB50024FA
:1033B000094F4FF4807501263819CDE90006012325
:1033C0000022782102950548FEF7B8F8641CE4B2A3
:1033D0001B2CF1D3FEBD0000230C0020480E002062
:1033E0000FB4054B10B503A9044A029800F0A8F8E1
:1033F00010BC5DF814FB0000CD390008500C002013
:103400000FB4084B10B504A902AA039800F098F86D
:10341000044602A9002000F0C4FA204610BC5DF862
:1034200014FB0000A33900080907090E002804DB7B
:1034300000F1E02080F80014704700F00F0000F168
:10344000E02080F8141D70472DE9F0414F1E00EB7D
:10345000C7010446D1E9000115461E4637F00602B1
:103460000DD02A463346FDF77AF87F1E04EBC703DA
:10347000D3E90023FCF778FE37F00602F1D1022FE2
:1034800025D0042F13D0062F18BFBDE8F0812A469F
:103490003346FDF764F8D4E90A23FCF765FE2A46B3
:1034A0003346FDF75CF8D4E90823FCF75DFE2A46B5
:1034B0003346FDF754F8D4E90623FCF755FE2A46B7
:1034C0003346FDF74CF8D4E90423FCF74DFE2A46B9
:1034D0003346FDF744F8D4E90223FCF745FE2A46BB
:1034E0003346FDF73CF8D4E90023BDE8F041FCF792
:1034F0003BBE00000022134610460149FCF7DBBE2C
:103500000000F03F0122FCF745BF002213461046A1
:103510001146FCF7D0BE02E008C8121F08C1002AFD
:10352000FAD170477047002001E001C1121F002A44
:10353000FBD170470149086070470000540C00201F
:103540002DE9FF4F8DB00F460546002606E02528E1
:103550000BD0DDE90F1290476D1C761C28780028EF
:10356000F5D111B03046BDE8F08F0024A246A14647
:103570000122EC4900E0044315F8013F203B02FA28
:1035800003F00842F7D128782A2810D06FF02F02D4
:103590002878A0F13001092914D80AEB8A0102EB3E
:1035A000410144F0020400EB010A6D1CF0E701CF79
:1035B0005FEA000A03D544F40054CAF1000A44F05B
:1035C00002046D1C28782E2817D115F8010F44F03D
:1035D00004042A280ED06FF02F022878A0F13001C1
:1035E00009290AD809EB890102EB410100EB010925
:1035F0006D1CF2E757F8049B6D1C28786C280FD0DF
:1036000006DC4C2817D068280DD06A2814D104E0B5
:10361000742810D07A280FD10DE044F400140AE089
:1036200044F4801401E044F440146978814202D1EA
:1036300004F580146D1C6D1C2A786E2A1FD00CDCDA
:10364000632A31D004DC002A8BD0582A11D1A3E0A0
:10365000642A68D0692A0CD165E0732A2ED004DC74
:103660006F2A73D0702A04D19BE0752A6FD0782A14
:103670006ED01046DDE90F129047761C50E1C4F37E
:103680000250022806D0032809D0042801CF09D00F
:10369000066045E101CFF117C0E9006140E101CFCB
:1036A00006803DE106703BE117F8040B8DF8000041
:1036B00000208DF80100EB46012003E057F804BB21
:1036C0004FF0FF3061074FF0000102D40DE008F128
:1036D0000101884649450FDA8045F8DB1BF80810E0
:1036E0000029F4D108E008F1010188468142FADBA3
:1036F0001BF808100029F6D1DDE90F23AAEB08001A
:103700008146214600F036F9304400EB080604E01B
:10371000DDE90F121BF8010B9047B8F10108F7D251
:1037200021464846F7E00A21C4F302534FF0000B4C
:103730000891022B04D001CFC117032B09D00AE056
:10374000FF1D27F00707F7E8020108E032E01FE05D
:1037500020E000B2C117042B01D140B2C117031EF3
:1037600071F1000307DA4FF0000CD0EB0C006CEBAA
:1037700001012D2302E0230504D52B238DF82430ED
:10378000012303E0E30701D02023F7E7984658E040
:103790000A2110E010210EE010204FF0000B0890DD
:1037A0000CE010214FF0000B44F004044FF0080926
:1037B000089103E008214FF0000B0891C4F3025375
:1037C000022B04D001CF0021032B06D006E0FF1D01
:1037D00027F00707F7E8020103E080B2042B00D1CD
:1037E000C0B24FF0000823072BD5702A07D0DDF8B0
:1037F00020C08CF0100C5CEA0B0C05D00EE04023CE
:103800008DF82430012308E050EA010306D030236C
:103810008DF824308DF8252002239846DDF820C04D
:103820008CF0080C5CEA0B0C0BD150EA010301D1BF
:10383000630706D530238DF824304FF00108A9F135
:103840000109582A04D038A20B9208AA0A920BE068
:103850003AA2F9E75B46089AFCF7D2FD0B9B9B5C0A
:103860000A9A521E0A92137050EA0102F2D10A9883
:10387000ADEB000000F1200B600702D524F480348A
:1038800001E04FF00109D94502DDA9EB0B0000E092
:10389000002000EB0B0141440890AAEB010AE00371
:1038A00006D4DDE90F232146504600F063F80644B4
:1038B0004FF0000908E009A911F80900DDE90F122D
:1038C000904709F10109761CC145F4DBE0030CD5F2
:1038D000DDE90F232146504600F04CF8064404E091
:1038E000DDE90F1230209047761C0899481E089099
:1038F0000029F5DC08E00A980A990078491C0A9129
:10390000DDE90F129047761CBBF10001ABF1010B12
:10391000F1DC21465046DDE90F2300F019F806449A
:103920006D1C1BE60928010030313233343536373F
:1039300038396162636465660000000030313233FB
:10394000343536373839414243444546000000009B
:103950002DE9F041044600251E461746880404D48C
:1039600005E039462020B0476D1C641EF9D5284675
:10397000BDE8F0812DE9F041044600251E46904641
:10398000C80301D5302700E02027880404D505E0CE
:1039900041463846B0476D1C641EF9D52846BDE83F
:1039A000F0810A68531C0B601070704700F00F0123
:1039B000000900EB800001EB400070474218402AEC
:1039C00002D3C1F1400080B27047000013B54FF63A
:1039D000FF73012269460248FEF790FD00981CBD66
:1039E000480F00202DE9F041054600244FF4005710
:1039F0000B4E11E0012239463046FDF7A7FB64204B
:103A0000FDF7A2FA002239463046FDF79FFB6420FD
:103A1000FDF79AFA641CE4B2AC42EBD3BDE8F08146
:103A2000001001402DE9F041054600244FF40077D5
:103A30000B4E11E0012239463046FDF787FB64202A
:103A4000FDF782FA002239463046FDF77FFB6420FD
:103A5000FDF77AFA641CE4B2AC42EBD3BDE8F08126
:103A6000000C01402DE9F041054600244FF4807719
:103A70000B4E11E0012239463046FDF767FB64200A
:103A8000FDF762FA002239463046FDF75FFB6420FD
:103A9000FDF75AFA641CE4B2AC42EBD3BDE8F08106
:103AA000000C01402DE9F04DC84A002490B091422D
:103AB00005DA21F00043934201D805D120B110B0BE
:103AC000BDE8F04DFFF71EBDB1F5801F1BDA53EACC
:103AD000000209D0002911DA0120FFF72BFD10B0F8
:103AE000BDE8F04DFFF711BD0220FFF723FDFFF702
:103AF00001FD10B081F00041BDE8F08D6FF035049C
:103B00003622FCF747FC04EB2152C1F31308B049FD
:103B1000A2F2FF33414401F4801282F07F6103EB93
:103B2000225281F04051009241EA08010022A94B43
:103B3000FCF7BBFB044608F10200A74EC0F31300DC
:103B40000D467E44032867D2D6E900232046FCF7C1
:103B500089FD1ED10098002802BFD6E9000110B0EF
:103B6000BDE8F08DFCF76DFD07460C469B4A9C4B6B
:103B7000FCF7F5FC06460D469A4A9B4B3846214613
:103B8000FCF7EDFC10B032462B46BDE8F04DFCF7DB
:103B9000EBBA4FF05532954B20462946FCF7DFFC37
:103BA0000022934BFCF784FB06460F4622462B4629
:103BB00010461946FCF7D3FC32463B46FCF7CFFCD7
:103BC000064600980F46F0B1FCF73BFD80468A465A
:103BD000824A834BFCF7C3FC32463B46FCF768FB4A
:103BE00022462B46FCF761FB05460C467D4A7E4B80
:103BF00040465146FCF7B3FC10B02A462346BDE8C8
:103C0000F04DFCF752BB0B4610B032462046294619
:103C1000BDE8F04DFCF749BB00224FF08043204641
:103C2000FCF7A2FA02460B4620462946FCF743FB66
:103C300006460F460098FCF704FDCDE90401324624
:103C40003B4610463946FCF78AFC0C9069480C9AB2
:103C50004044019009910B461046FCF780FC8246D7
:103C6000024665488B46C8F151080B4608F5D7282F
:103C700003217844FFF7E8FB52465B46FCF76FFCF4
:103C80000A905E480D9152465B4604217844FFF746
:103C9000DBFB099B0C9AFCF762FC844601980D9BA8
:103CA00040EA080860460A9AFCF75EFA83460891E3
:103CB000B8F1000F4EDD4FF0FF3220462946FCF7E9
:103CC00069FB22462B46FCF74AFC804600988A4650
:103CD00060B3DDE90401414A414BFCF740FC099126
:103CE00000905A4640465146089BFCF73DFA324642
:103CF0003B46FCF734FC099B009AFCF735FA424638
:103D00005346FCF7D5FA22462B46FCF7CEFA04467A
:103D10000D46DDE90401334A334BFCF720FC10B0BB
:103D200022462B46BDE8F04DFCF7BFBA5A46404646
:103D3000089BFCF719FA32463B46FCF710FC42465A
:103D40005346FCF7B5FA10B022462B46BDE8F04DBD
:103D5000FCF7AEBA009840B3DDE904011F4A204BDE
:103D6000FCF7FDFB80468A465A4620462946089BBA
:103D7000FCF79BFA32463B46FCF7F1FB42465346C2
:103D8000FCF793FA22462B46FCF78FFA04460D46C1
:103D9000DDE90401134A144BFCF7E1FB10B02246A5
:103DA0002B46BDE8F04DFCF780BA0B465A4620463C
:103DB0002946FCF77AFA32463B46FCF7D0FB10B0B6
:103DC00022462B46BDE8F04DFCF772BA0000F07FAA
:103DD000645F09000000F03F12140000763C793562
:103DE000EF39EA3D0000E0FE422EE63F5555D53F53
:103DF0000000E03F86EBF9FFAA120000A8120000C5
:103E00008EB0FDF781FCFFF7A2F9FEF7FBFEFEF78F
:103E10006DFFFEF78BFFFEF7A9FFFEF7CBFFFEF766
:103E2000C9FEFFF71FF800F0B7FB0120FFF7DAFD2E
:103E30000120FFF7F7FD0320FFF714FEFEF7DAFD80
:103E40000122FD49FD48FEF7FDFAFB4A002101234E
:103E5000921F0846FCF7ECFCF74CF9A0E41F6178D0
:103E6000FFF7BEFAFEA0FFF7BBFA14210020FCF713
:103E70007FFD0025FE4EE570E078042306EB80020E
:103E80000021401CFCF7D4FCE078401CC0B2E0707C
:103E90003C28F1D3E5702571E178227906EB8100A9
:103EA000835CF4A0FFF79CFA2079401CC0B220711B
:103EB0000428F1D3E078401CC0B2E0703C28EAD37B
:103EC0006846FCF77FFD00986061BDF80400DFF8EC
:103ED00068A320839DF806000AF10D0AA0769AF8DF
:103EE00000000090E24857469AF801309AF8022004
:103EF000E6A11F38FFF784FADD49E9A01F39FFF773
:103F00006FFA38790090DA487B79BA79E8A11F38DE
:103F1000FFF776FAD649EBA01F39FFF761FAED48B3
:103F2000FCF766FF3221EB48FCF7CAFEE948FCF7D4
:103F300009FE0146E060E8A0FFF752FAE068B0F53C
:103F4000FA6F04DA1F2200217020FEF7A5FF4FF45C
:103F5000FA70FCF7F9FFDFF818B3ABF1100BA0799A
:103F600001280DD13C21FCF71FFDB34A0021A571AA
:103F70000123521E0846FCF7A9FCDBA0FFF730FA2C
:103F80002078401CC0B22070142814D12570D1486C
:103F9000FCF72EFF3221CF48FCF792FECD48FCF70C
:103FA000D1FD40F26C71E060884204DA1F220021EA
:103FB0007020FEF771FFAE4926201039FEF744FD50
:103FC00000287DD1AA481038FEF7E7FC0028F8D178
:103FD0009DF834109BF8000081421DD19DF83520DA
:103FE0009BF8011058468A4216D19DF83610827807
:103FF000914211D19DF837109BF8030081420BD1FB
:104000000120FFF7EFFC0B2202217020FEF744FF96
:10401000BDA0FFF7E5F974E2874A00210123521F92
:104020000846FCF705FCE5700AE000BF06EB8002DD
:1040300004230021401CFCF7FBFBE078401CE070EF
:10404000E078A1788842F1D36571E5709BF8002093
:104050009BF801E09BF802C09BF803002746009004
:1040600016E000BF16F8203093420FD106EB80090E
:1040700099F80180F04509D199F80230634505D1DE
:1040800099F80380009B984500D17871401CF87026
:10409000F8788842E6D3787900287DD09DA0FFF794
:1040A0009FF97879DFF89081012108F1010801EB8F
:1040B000101188F8001000F00F0288F8012000E0CD
:1040C0002AE29BA0FFF78CF998F8013098F80020BD
:1040D0009DA108F10800FFF793F9042308F10802F5
:1040E00003212020FEF742FF9BF803109BF80200FB
:1040F000CDE900015048D8469BF801309BF80020DC
:1041000093A10930FFF77CF998F80300009098F824
:10411000023098F8012098F8001090A0FFF760F99D
:10412000454A0423093200212820FEF71FFF504A88
:1041300078790E232D3A0521401CFCF779FB4C4F72
:104140000DF1240C2D3FF87ABB7B7A7B397B8CE810
:104150000F00F8790DF1140CBB7A7A7A397A8CE871
:104160000F00F8780DF1040CBB797A7939798CE875
:104170000F00B878009030487B783A787AA11430F4
:10418000FFF73EF92C4980A01431FFF729F93B7B5A
:10419000FA7AB97A787A00E01DE00DF1180C8CE813
:1041A0000F0078790DF1080C3B7AFA79B9798CE82F
:1041B0000F003979F878CDE90001BB787A78397841
:1041C0007548FFF70DF91C4A0E2314320721002011
:1041D000FEF7CCFE95E171A0FFF702F9B97877A060
:1041E000FFF7FEF89BF803109BF80200CDE90001F1
:1041F00011489BF801309BF8002055A10930FFF7CA
:10420000FFF89BF8030000909BF802309BF8012018
:104210009BF800106FA0FFF7E3F8074A0423093268
:1042200000212820FEF7A2FE082202217020FEF7BE
:1042300033FE6846DAE0000007000020480F002047
:10424000656570726F6DE5B7B2E4BF9DE5AD98E648
:104250009687E6A1A3E695B0EFBC9A25640A000014
:10426000E8AFBBE58F96454550524F4D0A00000020
:10427000850C0020736176656469642564E8A18C0F
:104280002564E588972025640A0000002530326403
:104290003A253032643A253032640D0A00000000BD
:1042A000E5BD93E5898DE697B6E997B425730000DF
:1042B0003230253032642D253032642D2530326481
:1042C0000D0A0000E5BD93E5898DE697A5E69C9F64
:1042D00025730000180E002061646376616C203D38
:1042E0002025640A00000000E693A6E999A4E5AE43
:1042F0008CE6889020E8AFB7E9878DE590AFE7B30B
:10430000BBE7BB9F5C6E000073616D6563617264A7
:104310000A000000E69687E6A1A3E5B7B2E7BB8FE7
:10432000E59CA8E5BA93E4B8ADE4BA86200A00009B
:10433000E69687E6A1A3E59CA82564E8A18C256400
:10434000E58897200A0000004825644C2564000099
:10435000255825582558255800000000255825586F
:10436000255825580A000000256325632563256329
:1043700025632563256325632563256325632563FD
:104380002563256300000000E69687E6A1A3E58F7C
:10439000B7EFBC9A25730A00604F0008E58F91E7DC
:1043A0008EB0E696B0E69687E6A1A3EFBC8CE5B7A3
:1043B000B2E585A5E69F9C200A000000E5B7B2E5BE
:1043C000AD98E582A82564E4BBBDE69687E6A1A387
:1043D000200A000052464944E8AF86E588ABE58FE5
:1043E000B72025582558255825580A00FCF7EAFA21
:1043F00000987861BDF8040038839DF80600DFF866
:104400002091B876864689F800009AF8053089F838
:1044100001309AF8040089F802009AF8021089F82D
:1044200003109AF8012089F804209AF8008089F88E
:1044300005809BF803C089F806C08DE80711724615
:1044400038A13F48FEF7DCFF3D49AFF2C400FEF75C
:10445000C7FF9AF802009AF800209AF801108DE838
:1044600007009AF804309AF805209AF8061035A04B
:10447000FEF7B6FF0723324A19460020FEF776FD05
:10448000B878401CC1B2B9703CA0FEF7A9FFB8785B
:10449000DFF8AC800121A8F1130801EB101188F8B6
:1044A000001000F00F0288F80120AFF27C10FEF738
:1044B00097FF98F8013098F80020AFF2741108F1D6
:1044C0000800FEF79DFF042308F1080203212020C5
:1044D000FEF74CFD00210123A8F106020846FCF777
:1044E000F5F9042309F11D020021B878FCF7EEF973
:1044F0000E23134A0521B878FCF7E8F90420FFF7EA
:1045000091FAE5700DAA5946E0780B5C1354401CF3
:10451000C0B2E0700428F7D30A20FCF715FD1EE5B1
:10452000580C002025303264253032642530326446
:10453000253032642530326425303264255800003D
:104540001B000020E8BF9BE585A5E69687E6A1A3B2
:10455000E69F9CE697B6E997B43A2564E5B9B42599
:1045600064E69C882564E697A52564E697B62564ED
:10457000E588862564E7A792200A0000E5B7B2E443
:10458000BF9DE5AD98E69687E6A1A3E695B0EFBCA2
:104590009A25640A0000000038B5FEF729FC53484C
:1045A00000210090082380220846FEF73BFC4FF4D0
:1045B000FA70FCF7C9FC4FF47A742046FCF7C4FC8F
:1045C0002046FCF7C1FCFEF713FC1322002110204B
:1045D000FEF762FC142200212020FEF75DFC15226C
:1045E00000213020FEF758FC162200214020FEF763
:1045F00053FC172200215020FEF74EFC1822002108
:104600006020FEF749FC0F2202212020FEF744FC27
:10461000102202213020FEF73FFC1122022140200F
:10462000FEF73AFC122202215020FEF735FC002250
:1046300004211020FEF730FC012204212020FEF787
:104640002BFC022204213020FEF726FC0322042149
:104650004020FEF721FC042211465020FEF71CFCEE
:10466000052204216020FEF717FC0C2206212820D9
:10467000FEF712FC0D2206213820FEF70DFC0E225B
:1046800006214820FEF708FC4FF4AF60FCF75CFC05
:10469000FEF7AEFB00211B220846FEF7FDFB1E22A3
:1046A00000211020FEF7F8FB01233A2219462020B2
:1046B000FEF718FC192202210020FEF7EDFB1A225A
:1046C00002211020FEF7E8FB1C2204210020FEF747
:1046D000E3FB1D2204211020FEF7DEFBBDE838407D
:1046E0001E2204212020FEF7D7BB00002308002053
:1046F0000000000000000000002F00000000070084
:10470000070000147F147F1400242A7F2A120062FD
:1047100064081323003649552250000005030000A9
:1047200000001C224100000041221C000014083E31
:1047300008140008083E0808000000A060000008F7
:10474000080808080000606000000020100804024B
:10475000003E5149453E0000427F40000042615109
:104760004946002141454B31001814127F100027A3
:1047700045454539003C4A49493000017109050366
:1047800000364949493600064949291E0000363697
:1047900000000000563600000008142241000014FA
:1047A00014141414000041221408000201510906D7
:1047B00000324959513E007C1211127C007F494958
:1047C0004936003E41414122007F4141221C007F89
:1047D00049494941007F09090901003E4149497A97
:1047E000007F0808087F0000417F41000020404111
:1047F0003F01007F08142241007F40404040007F7D
:10480000020C027F007F0408107F003E4141413EC0
:10481000007F09090906003E4151215E007F091908
:1048200029460046494949310001017F0101003F05
:104830004040403F001F2040201F003F4038403F85
:1048400000631408146300070870080700615149E9
:10485000454300007F41410000552A552A5500007C
:1048600041417F00000402010204004040404040FA
:10487000000001020400002054545478007F484492
:10488000443800384444442000384444487F0038C9
:104890005454541800087E0901020018A4A4A47CF2
:1048A000007F080404780000447D400000408084BC
:1048B0007D00007F102844000000417F4000007C04
:1048C00004180478007C0804047800384444443810
:1048D00000FC242424180018242418FC007C08045C
:1048E000040800485454542000043F444020003C35
:1048F0004040207C001C2040201C003C4030403CBC
:10490000004428102844001CA0A0A07C004464544B
:104910004C4414141414141400000000000000008F
:104920000000000000000000000000F8000000008F
:10493000000000333000000000100C06100C0600D0
:10494000000000000000000040C07840C078400037
:10495000043F04043F040400007088FC0830000099
:10496000001820FF211E0000F008F000E0180000F1
:1049700000211C031E211E0000F0088870000000AA
:104980001E2123241927211010160E0000000000FC
:104990000000000000000000000000E01804020019
:1049A000000000071820400000020418E00000008A
:1049B0000040201807000000404080F08040400088
:1049C0000202010F01020200000000F000000000DE
:1049D0000101011F010101000000000000000000B2
:1049E00080B0700000000000000000000000000027
:1049F00000010101010101010000000000000000B0
:104A0000003030000000000000000000806018044A
:104A1000006018060100000000E010080810E00027
:104A2000000F102020100F00001010F800000000F0
:104A30000020203F20200000007008080888700037
:104A400000302824222130000030088888483000B7
:104A50000018202020110E000000C02010F80000D7
:104A600000070424243F240000F808888808080070
:104A70000019212020110E0000E010888818000085
:104A8000000F112020110E0000380808C838080057
:104A90000000003F000000000070880808887000D7
:104AA000001C222121221C0000E010080810E00058
:104AB0000000312222110F00000000C0C0000000E1
:104AC0000000003030000000000000800000000006
:104AD00000008060000000000000804020100800FE
:104AE00000010204081020004040404040404000C7
:104AF00004040404040404000008102040800000A2
:104B00000020100804020100007048080808F000A6
:104B10000000003036010000C030C828E810E00076
:104B20000718272423140B000000C038E000000001
:104B3000203C23020227382008F88888887000006B
:104B4000203F202020110E00C0300808080838003F
:104B5000071820202010080008F808080810E000B6
:104B6000203F202020100F0008F88888E808100057
:104B7000203F20202320180008F88888E80810002B
:104B8000203F200003000000C03008080838000063
:104B900007182020221E020008F808000008F80864
:104BA000203F210101213F20000808F808080000EB
:104BB0000020203F2020000000000808F80808001E
:104BC000C08080807F00000008F888C02818080096
:104BD000203F20012638200008F8080000000000CF
:104BE000203F20202020300008F8F800F8F80800C6
:104BF000203F003F003F200008F830C00008F808C0
:104C0000203F200007183F00E01008080810E000CF
:104C10000F10202020100F0008F808080808F000E6
:104C2000203F210101010000E01008080810E00009
:104C30000F18242438504F0008F88888888870009E
:104C4000203F2000030C302000708808080838003E
:104C50000038202121221C00180808F80808180034
:104C60000000203F2000000008F808000008F808B5
:104C7000001F202020201F000878880000C8380866
:104C8000000007380E010000F80800F80008F800DE
:104C9000033C0700073C0300081868808068180878
:104CA00020302C03032C30200838C800C8380800F6
:104CB0000000203F2000000010080808C838080045
:104CC0002038262120201800000000FE02020200E9
:104CD0000000007F40404000000C30C00000000099
:104CE000000000010638C00000020202FE000000C1
:104CF000004040407F000000000004020202040067
:104D000000000000000000000000000000000000A3
:104D1000808080808080808000020204000000008B
:104D20000000000000000000000080808080000083
:104D30000019242222223F2008F800808000000071
:104D4000003F112020110E00000000808080000034
:104D5000000E112020201100000000808088F80043
:104D6000000E112020103F20000080808080000075
:104D7000001F222222221300008080F088888818D9
:104D80000020203F202000000000808080808000E4
:104D9000006B94949493600008F800808080000079
:104DA000203F210000203F20008098980000000054
:104DB0000020203F20200000000000809898000084
:104DC00000C08080807F000008F8000080808000A4
:104DD000203F24022D302000000808F800000000C9
:104DE0000020203F20200000808080808080800084
:104DF000203F20003F20003F808000808080000016
:104E0000203F210000203F200000808080800000A3
:104E1000001F202020201F008080008080000000D4
:104E200080FFA12020110E00000000808080800003
:104E3000000E112020A0FF808080800080808000F4
:104E400020203F2120000100000080808080800021
:104E50000033242424241900008080E08080000096
:104E60000000001F202000008080000000808000E3
:104E7000001F202020103F20808080000080808044
:104E800000010E30080601008080008000808080D4
:104E90000F300C030C300F000080800080808000F9
:104EA0000020312E0E312000808080000080808024
:104EB00080818E70180601000080808080808000D4
:104EC0000021302C2221300000000000807C0202F2
:104ED00000000000003F404000000000FF00000014
:104EE00000000000FF0000000002027C80000000C3
:104EF0000040403F000000000006010102020404DF
:104F000000000000000000000000000000000000A1
:104F1000010203040607080900000000010203045F
:104F200004FA97999999D93FAF788E1DC571CC3FF6
:104F30009FC678D0099AC33F935555555555E53FBF
:104F4000599322942449D23FDE03CB966446C73F4F
:104F500044523EDF12F1C23F00000000000000009A
:104F6000E5AD98E585A5E69687E6A1A3E69F9CE6D4
:104F700097B6E997B43A323025632563E5B9B4258D
:104F8000632563E69C8825632563E697A52563254D
:104F900063E697B625632563E5888625632563E781
:104FA000A792200A00000000C84F0008000000205F
:104FB000580C0000B806000814560008580C0020D1
:104FC00030070000263500080124180C101010F0DE
:104FD00090121E1810F0300B0112180C4040406067
:104FE0002336181C3721600B0112000E1320A0FE7F
:104FF000A020C0DCD0C0FEC0F0DC140601FF3C03E2
:1050000022240102137F000F14D0584E465C4474D2
:10501000705846465C54C43CFFFF5501031457705A
:10502000168888F888882CFC2424030A11FCA01810
:105030000A201F1010484949497F04021349000DF6
:105040001404446464D4CC4C6424920202000E1212
:1050500022120B0342427E02020A133322000F1275
:105060006058CE60300888C83A0E08C88808000F1B
:10507000126426252412C0613D0F017F4141613E2B
:10508000808080BCA4010515BCBC8080000A180487
:10509000070404C444447C1C0617068CF870C0271F
:1050A0006060301C0603071201071C3830201EFC0C
:1050B0000E0757510104154101FF1D3F202021011A
:1050C000000812394594B3844C303F2010C8362470
:1050D00044010510C4444060550201017F4C40402A
:1050E0004009E9DD100904C4342C24A4640422F826
:1050F0000212FE3008414120130C06010A120F4231
:10510000001011C0F01C0C868203030383C06030C2
:105110001808001110030F38306143C7C6C3C140DF
:105120006030380F0308101010D0FF9090104464C6
:10513000D44C44C240C0404011127F000B120908F9
:105140002422110C4340300F000F12808040605029
:105150004846C6485060404080080F104042464ACA
:105160007242427F4262564A434260180C2042C457
:105170003CE098949090FE90010911412A7EFB2B0F
:105180007E22010910FE3117FF0888888848000830
:1051900011FE2210100808C01D04050504011A7F25
:1051A0000819010A1107A119743AFC03110B11C067
:1051B000201F080E1140434C407F40407F5844431D
:1051C0004040C01330EC0809128080403E020202C9
:1051D0007E2021080C113F1008454147291129471D
:1051E000411F1D2020FC20383C4040FE0609144091
:1051F0002A08E8011A42F04920390BF9421A200125
:1052000039050311207F180A08088848380C0BC894
:1052100008012A8869F1080E1140201109058181D1
:105220007F0101090931A000101104E49C8494104D
:10523000949494FF9494FC10100010118748302F20
:10524000484A8A8A8ABF8A8A8B8E48180C504E45F3
:10525000CC544464D04E5A68840112100B101010C4
:105260000F48281807060805117F40406039D73CD1
:1052700020FFE0070A1130C0174020100806010E79
:1052800010030C1010203F11081010C020A4B8A06B
:10529000A0A4ACA0B0ACA2602020E029013D444411
:1052A0007E0509021104080F108040F02C22A02076
:1052B000223C2020E02030402119B71808415E40F0
:1052C00040704F400101111809302E6AAAAAAEAAF7
:1052D000FA040C12AA2A3EC04C407F5A011949F91F
:1052E00040295429231BC848010B114040E159852E
:1052F0001A02BD031208101A10011808F010121C2F
:105300001090700A0113180A8040402023140814DA
:1053100023670A1280401FD0FE9010487084041248
:105320006050CC130C03127F4B2324010A117F5FC2
:105330004D8080BE92010C11BE80C061211B04070C
:10534000BC06128484C43C048DF808E808010310EC
:1053500030E02C0F1817E24901041B08040358140D
:1053600080804060301018080C040602020201F927
:1053700001110101081014815101819202020404FB
:105380000C0818102060A6013B3008C060300C06E5
:1053900003012D082338408A200AC0C0E4E1E0F070
:1053A000F0F070280971F2F0F0E0E0E0C076199EAC
:1053B00023080488080101020C1830E08717202018
:1053C000FEFE202018098484446434140C0C232924
:1053D000D0380C404020100C0606183060402B15C9
:1053E000C2840C181808C0381C101010FE044A1093
:1053F000261CF01C077A2C224088362012C0F0F8B8
:10540000FC7E7F3F1F1F8F874723211108881812BA
:105410008818112343478F0F1F3F7FFFFEFCF8E0E2
:10542000C06E1214142010184D030E38E07F1012B5
:105430001807FFFF0284C9611D07C1711F0101F137
:105440007F180B02021150D191111111FF041F910D
:10545000D1101102025E1A71181BF212011A130404
:105460001AF212113B80FFF73A08A11EFCFFFFFF62
:105470003F07311E19088444628119F43008312233
:1054800042C48808111985192243FFF049BE7303ED
:10549000FE13070712011B040204190132031A024A
:1054A000019A0304196D2A066B112A070D2901427E
:1054B000072B01FF7A2C4AD390FE1A3F5D31190465
:1054C0003009FC3111888CC4E2633E6162C4848877
:1054D000851A8C5829802A1F7F1C54501233034090
:1054E000E07F16010F38E0801702042DC810C014A9
:1054F00001030F2420303F101987C6C3E331F07831
:10550000BC7EFE3EBCF8783161E3C68C8C18393025
:1055100060141F0F0312801630040901011CC070B3
:105520001EC452C0490671190D79102A40E04DC0C1
:10553000404040123A401031B2E0100B03060C1804
:1055400060408002040B19D41A40872809C307075A
:10555000070C0F0C0C0429071607070303813011F1
:10556000102048200814090280C06030180C070180
:10557000300F8080BF91919189E0BFA2A2A1A1913B
:1055800026020C7040FF36FF40601806180D080810
:10559000F801081C33D09090D3345C391019052CD5
:1055A0000808FF05E1181D01030604081810302043
:1055B0002061404240868780868082848280858701
:1055C0008082C1C1280B6020301018080C0406032B
:1055D00079E1820F2A04013A07031901412C0702DD
:1055E0000B343E030204040C2B430402621F12AE70
:1055F000100C1040B081FFA1A6A83FC8D3180ED54B
:1056000080D805D9F1DA12D8308D14AF91318210DB
:045610009324F400EB
:04000005080000ED02
:00000001FF
